{
  "_format": "hh-sol-artifact-1",
  "contractName": "AnonymousTransport",
  "sourceName": "contracts/AnonymousTransport.sol",
  "abi": [
    {
      "inputs": [],
      "stateMutability": "nonpayable",
      "type": "constructor"
    },
    {
      "anonymous": false,
      "inputs": [
        {
          "indexed": true,
          "internalType": "uint32",
          "name": "requestId",
          "type": "uint32"
        },
        {
          "indexed": true,
          "internalType": "address",
          "name": "requester",
          "type": "address"
        }
      ],
      "name": "RequestSubmitted",
      "type": "event"
    },
    {
      "anonymous": false,
      "inputs": [
        {
          "indexed": true,
          "internalType": "uint32",
          "name": "routeId",
          "type": "uint32"
        },
        {
          "indexed": true,
          "internalType": "address",
          "name": "carrier",
          "type": "address"
        }
      ],
      "name": "RouteRegistered",
      "type": "event"
    },
    {
      "anonymous": false,
      "inputs": [
        {
          "indexed": true,
          "internalType": "uint32",
          "name": "routeId",
          "type": "uint32"
        },
        {
          "indexed": false,
          "internalType": "uint256",
          "name": "timestamp",
          "type": "uint256"
        }
      ],
      "name": "ScheduleOptimized",
      "type": "event"
    },
    {
      "anonymous": false,
      "inputs": [
        {
          "indexed": true,
          "internalType": "uint32",
          "name": "requestId",
          "type": "uint32"
        },
        {
          "indexed": true,
          "internalType": "uint32",
          "name": "routeId",
          "type": "uint32"
        }
      ],
      "name": "TransportMatched",
      "type": "event"
    },
    {
      "inputs": [
        {
          "internalType": "address",
          "name": "",
          "type": "address"
        },
        {
          "internalType": "uint256",
          "name": "",
          "type": "uint256"
        }
      ],
      "name": "carrierRoutes",
      "outputs": [
        {
          "internalType": "uint32",
          "name": "",
          "type": "uint32"
        }
      ],
      "stateMutability": "view",
      "type": "function"
    },
    {
      "inputs": [
        {
          "internalType": "uint32",
          "name": "_routeId",
          "type": "uint32"
        }
      ],
      "name": "deactivateRoute",
      "outputs": [],
      "stateMutability": "nonpayable",
      "type": "function"
    },
    {
      "inputs": [
        {
          "internalType": "address",
          "name": "_carrier",
          "type": "address"
        }
      ],
      "name": "getCarrierRoutes",
      "outputs": [
        {
          "internalType": "uint32[]",
          "name": "",
          "type": "uint32[]"
        }
      ],
      "stateMutability": "view",
      "type": "function"
    },
    {
      "inputs": [
        {
          "internalType": "uint32",
          "name": "_requestId",
          "type": "uint32"
        }
      ],
      "name": "getRequestStatus",
      "outputs": [
        {
          "internalType": "bool",
          "name": "isMatched",
          "type": "bool"
        },
        {
          "internalType": "address",
          "name": "requester",
          "type": "address"
        },
        {
          "internalType": "uint32",
          "name": "assignedRoute",
          "type": "uint32"
        },
        {
          "internalType": "uint256",
          "name": "requestTime",
          "type": "uint256"
        }
      ],
      "stateMutability": "view",
      "type": "function"
    },
    {
      "inputs": [
        {
          "internalType": "uint32",
          "name": "_routeId",
          "type": "uint32"
        }
      ],
      "name": "getRouteInfo",
      "outputs": [
        {
          "internalType": "bool",
          "name": "isActive",
          "type": "bool"
        },
        {
          "internalType": "address",
          "name": "carrier",
          "type": "address"
        },
        {
          "internalType": "uint256",
          "name": "timestamp",
          "type": "uint256"
        }
      ],
      "stateMutability": "view",
      "type": "function"
    },
    {
      "inputs": [
        {
          "internalType": "uint32",
          "name": "_routeId",
          "type": "uint32"
        }
      ],
      "name": "getScheduleInfo",
      "outputs": [
        {
          "internalType": "bool",
          "name": "isOptimized",
          "type": "bool"
        },
        {
          "internalType": "uint256",
          "name": "scheduleTime",
          "type": "uint256"
        },
        {
          "internalType": "uint256",
          "name": "requestCount",
          "type": "uint256"
        }
      ],
      "stateMutability": "view",
      "type": "function"
    },
    {
      "inputs": [
        {
          "internalType": "address",
          "name": "_user",
          "type": "address"
        }
      ],
      "name": "getUserRequests",
      "outputs": [
        {
          "internalType": "uint32[]",
          "name": "",
          "type": "uint32[]"
        }
      ],
      "stateMutability": "view",
      "type": "function"
    },
    {
      "inputs": [
        {
          "internalType": "uint32",
          "name": "_requestId",
          "type": "uint32"
        },
        {
          "internalType": "uint32",
          "name": "_routeId",
          "type": "uint32"
        }
      ],
      "name": "matchRequest",
      "outputs": [],
      "stateMutability": "nonpayable",
      "type": "function"
    },
    {
      "inputs": [
        {
          "internalType": "uint32",
          "name": "_routeId",
          "type": "uint32"
        }
      ],
      "name": "optimizeSchedule",
      "outputs": [],
      "stateMutability": "nonpayable",
      "type": "function"
    },
    {
      "inputs": [],
      "name": "owner",
      "outputs": [
        {
          "internalType": "address",
          "name": "",
          "type": "address"
        }
      ],
      "stateMutability": "view",
      "type": "function"
    },
    {
      "inputs": [
        {
          "internalType": "uint32",
          "name": "_routeId",
          "type": "uint32"
        }
      ],
      "name": "reactivateRoute",
      "outputs": [],
      "stateMutability": "nonpayable",
      "type": "function"
    },
    {
      "inputs": [
        {
          "internalType": "uint16",
          "name": "_startX",
          "type": "uint16"
        },
        {
          "internalType": "uint16",
          "name": "_startY",
          "type": "uint16"
        },
        {
          "internalType": "uint16",
          "name": "_endX",
          "type": "uint16"
        },
        {
          "internalType": "uint16",
          "name": "_endY",
          "type": "uint16"
        },
        {
          "internalType": "uint32",
          "name": "_capacity",
          "type": "uint32"
        },
        {
          "internalType": "uint16",
          "name": "_priority",
          "type": "uint16"
        }
      ],
      "name": "registerRoute",
      "outputs": [],
      "stateMutability": "nonpayable",
      "type": "function"
    },
    {
      "inputs": [],
      "name": "requestCounter",
      "outputs": [
        {
          "internalType": "uint32",
          "name": "",
          "type": "uint32"
        }
      ],
      "stateMutability": "view",
      "type": "function"
    },
    {
      "inputs": [
        {
          "internalType": "uint32",
          "name": "",
          "type": "uint32"
        }
      ],
      "name": "requests",
      "outputs": [
        {
          "internalType": "euint16",
          "name": "pickupX",
          "type": "bytes32"
        },
        {
          "internalType": "euint16",
          "name": "pickupY",
          "type": "bytes32"
        },
        {
          "internalType": "euint16",
          "name": "dropX",
          "type": "bytes32"
        },
        {
          "internalType": "euint16",
          "name": "dropY",
          "type": "bytes32"
        },
        {
          "internalType": "euint32",
          "name": "weight",
          "type": "bytes32"
        },
        {
          "internalType": "euint16",
          "name": "urgency",
          "type": "bytes32"
        },
        {
          "internalType": "euint32",
          "name": "maxCost",
          "type": "bytes32"
        },
        {
          "internalType": "bool",
          "name": "isMatched",
          "type": "bool"
        },
        {
          "internalType": "address",
          "name": "requester",
          "type": "address"
        },
        {
          "internalType": "uint32",
          "name": "assignedRoute",
          "type": "uint32"
        },
        {
          "internalType": "uint256",
          "name": "requestTime",
          "type": "uint256"
        }
      ],
      "stateMutability": "view",
      "type": "function"
    },
    {
      "inputs": [],
      "name": "routeCounter",
      "outputs": [
        {
          "internalType": "uint32",
          "name": "",
          "type": "uint32"
        }
      ],
      "stateMutability": "view",
      "type": "function"
    },
    {
      "inputs": [
        {
          "internalType": "uint32",
          "name": "",
          "type": "uint32"
        }
      ],
      "name": "routes",
      "outputs": [
        {
          "internalType": "euint16",
          "name": "startX",
          "type": "bytes32"
        },
        {
          "internalType": "euint16",
          "name": "startY",
          "type": "bytes32"
        },
        {
          "internalType": "euint16",
          "name": "endX",
          "type": "bytes32"
        },
        {
          "internalType": "euint16",
          "name": "endY",
          "type": "bytes32"
        },
        {
          "internalType": "euint32",
          "name": "capacity",
          "type": "bytes32"
        },
        {
          "internalType": "euint16",
          "name": "priority",
          "type": "bytes32"
        },
        {
          "internalType": "bool",
          "name": "isActive",
          "type": "bool"
        },
        {
          "internalType": "address",
          "name": "carrier",
          "type": "address"
        },
        {
          "internalType": "uint256",
          "name": "timestamp",
          "type": "uint256"
        }
      ],
      "stateMutability": "view",
      "type": "function"
    },
    {
      "inputs": [
        {
          "internalType": "uint32",
          "name": "",
          "type": "uint32"
        }
      ],
      "name": "schedules",
      "outputs": [
        {
          "internalType": "uint32",
          "name": "routeId",
          "type": "uint32"
        },
        {
          "internalType": "euint32",
          "name": "totalLoad",
          "type": "bytes32"
        },
        {
          "internalType": "euint16",
          "name": "efficiency",
          "type": "bytes32"
        },
        {
          "internalType": "bool",
          "name": "isOptimized",
          "type": "bool"
        },
        {
          "internalType": "uint256",
          "name": "scheduleTime",
          "type": "uint256"
        }
      ],
      "stateMutability": "view",
      "type": "function"
    },
    {
      "inputs": [
        {
          "internalType": "uint16",
          "name": "_pickupX",
          "type": "uint16"
        },
        {
          "internalType": "uint16",
          "name": "_pickupY",
          "type": "uint16"
        },
        {
          "internalType": "uint16",
          "name": "_dropX",
          "type": "uint16"
        },
        {
          "internalType": "uint16",
          "name": "_dropY",
          "type": "uint16"
        },
        {
          "internalType": "uint32",
          "name": "_weight",
          "type": "uint32"
        },
        {
          "internalType": "uint16",
          "name": "_urgency",
          "type": "uint16"
        },
        {
          "internalType": "uint32",
          "name": "_maxCost",
          "type": "uint32"
        }
      ],
      "name": "submitTransportRequest",
      "outputs": [],
      "stateMutability": "nonpayable",
      "type": "function"
    },
    {
      "inputs": [
        {
          "internalType": "address",
          "name": "",
          "type": "address"
        },
        {
          "internalType": "uint256",
          "name": "",
          "type": "uint256"
        }
      ],
      "name": "userRequests",
      "outputs": [
        {
          "internalType": "uint32",
          "name": "",
          "type": "uint32"
        }
      ],
      "stateMutability": "view",
      "type": "function"
    }
  ],
  "bytecode": "0x608060405234801561001057600080fd5b5061018c6100b0604080516080810182526000808252602082018190529181018290526060810191909152506040805160808101825273687820221192c5b662b25367f70076a37bc79b6c815273848b0066793bcc60346da1f49049357399b8d5956020820152731364cbbf2cdf5032c47d8226a6f6fbd2afcdacac9181019190915273bc91f3dad1a5f19f8390c400196e58073b6a0bc4606082015290565b80517fed8d60e34876f751cc8b014c560745351147d9de11b9347c854e881b128ea60080546001600160a01b03199081166001600160a01b039384161790915560208301517fed8d60e34876f751cc8b014c560745351147d9de11b9347c854e881b128ea6018054831691841691909117905560408301517fed8d60e34876f751cc8b014c560745351147d9de11b9347c854e881b128ea6028054831691841691909117905560608301517fed8d60e34876f751cc8b014c560745351147d9de11b9347c854e881b128ea6038054909216921691909117905550565b7f5ea69329017273582817d320489fbd94f775580e90c092699ca6f3d12fdf7d0080546001600160a01b03191673a02cda4ca3a71d7c46997716f4283aa851c288121790556000805463ffffffff60c01b1963ffffffff60a01b1933166001600160c01b031990921691909117600160a01b1716600160c01b1790556120b4806102176000396000f3fe608060405234801561001057600080fd5b50600436106101215760003560e01c806379cec1e0116100ad578063b0b21ec611610071578063b0b21ec61461044c578063b337cf74146104a3578063b940762c146104b6578063bbb155db1461053c578063cafeed1d146105a557600080fd5b806379cec1e0146103695780638763cbdd1461037c5780638da5cb5b1461038f578063973a814e146103ba5780639e745a9e146103d157600080fd5b8063263cb6b6116100f4578063263cb6b6146102f55780632be0d20c1461031d578063379fc3e0146103305780635764b79c1461034357806363d6b93e1461035657600080fd5b80630ab469b0146101265780630d94ee9c1461020b5780631289368e1461022b578063263af8e814610240575b600080fd5b6101a2610134366004611d4b565b60026020819052600091825260409091208054600182015492820154600383015460048401546005850154600686015460078701546008909701549597969495939492939192909160ff82169161010081046001600160a01b031691600160a81b90910463ffffffff16908b565b604080519b8c5260208c019a909a52988a01979097526060890195909552608088019390935260a087019190915260c0860152151560e08501526001600160a01b031661010084015263ffffffff16610120830152610140820152610160015b60405180910390f35b61021e610219366004611d7d565b6105bc565b6040516102029190611d98565b61023e610239366004611de2565b610654565b005b6102a661024e366004611d4b565b6001602081905260009182526040909120805491810154600282015460038301546004840154600585015460068601546007909601549495939492939192909160ff8116916101009091046001600160a01b03169089565b60408051998a5260208a0198909852968801959095526060870193909352608086019190915260a0850152151560c08401526001600160a01b031660e083015261010082015261012001610202565b610308610303366004611e15565b61082f565b60405163ffffffff9091168152602001610202565b61023e61032b366004611e51565b610878565b61023e61033e366004611d4b565b610bc9565b61023e610351366004611ed7565b610c32565b61023e610364366004611d4b565b610f19565b61023e610377366004611d4b565b610f88565b61030861038a366004611e15565b61126d565b6000546103a2906001600160a01b031681565b6040516001600160a01b039091168152602001610202565b60005461030890600160c01b900463ffffffff1681565b61041b6103df366004611d4b565b60036020819052600091825260409091208054600282015492820154600483015460059093015463ffffffff9092169392909160ff9091169085565b6040805163ffffffff909616865260208601949094529284019190915215156060830152608082015260a001610202565b61048661045a366004611d4b565b63ffffffff1660009081526003602052604090206004810154600582015460019092015460ff90911692565b604080519315158452602084019290925290820152606001610202565b61021e6104b1366004611d7d565b611289565b6105076104c4366004611d4b565b63ffffffff9081166000908152600260205260409020600781015460089091015460ff82169361010083046001600160a01b031693600160a81b90930490921691565b6040805194151585526001600160a01b03909316602085015263ffffffff909116918301919091526060820152608001610202565b61058061054a366004611d4b565b63ffffffff166000908152600160205260409020600681015460079091015460ff8216926101009092046001600160a01b031691565b6040805193151584526001600160a01b03909216602084015290820152606001610202565b60005461030890600160a01b900463ffffffff1681565b6001600160a01b03811660009081526004602090815260409182902080548351818402810184019094528084526060939283018282801561064857602002820191906000526020600020906000905b82829054906101000a900463ffffffff1663ffffffff168152602001906004019060208260030104928301926001038202915080841161060b5790505b50505050509050919050565b63ffffffff8116600090815260016020526040902060060154819061010090046001600160a01b031633146106a45760405162461bcd60e51b815260040161069b90611f4b565b60405180910390fd5b63ffffffff831660009081526002602052604090206007015460ff161561070d5760405162461bcd60e51b815260206004820152601760248201527f5265717565737420616c7265616479206d617463686564000000000000000000604482015260640161069b565b63ffffffff821660009081526001602052604090206006015460ff166107685760405162461bcd60e51b815260206004820152601060248201526f526f757465206e6f742061637469766560801b604482015260640161069b565b63ffffffff821660009081526003602052604090206004015460ff166107c95760405162461bcd60e51b815260206004820152601660248201527514d8da19591d5b19481b9bdd081bdc1d1a5b5a5e995960521b604482015260640161069b565b63ffffffff8381166000818152600260205260408082206007018054600160ff63ffffffff60a81b0119909116600160a81b96891696870217179055517fb340d0651b6fdb6dd08eea419a52b8d5285682d1b83a28f0fd03d6478980eda49190a3505050565b6005602052816000526040600020818154811061084b57600080fd5b9060005260206000209060089182820401919006600402915091509054906101000a900463ffffffff1681565b6000610883886112f9565b90506000610890886112f9565b9050600061089d886112f9565b905060006108aa886112f9565b905060006108b788611310565b905060006108c4886112f9565b905060006108d188611310565b9050604051806101600160405280888152602001878152602001868152602001858152602001848152602001838152602001828152602001600015158152602001336001600160a01b03168152602001600063ffffffff16815260200142815250600260008060189054906101000a900463ffffffff1663ffffffff1663ffffffff168152602001908152602001600020600082015181600001556020820151816001015560408201518160020155606082015181600301556080820151816004015560a0820151816005015560c0820151816006015560e08201518160070160006101000a81548160ff0219169083151502179055506101008201518160070160016101000a8154816001600160a01b0302191690836001600160a01b031602179055506101208201518160070160156101000a81548163ffffffff021916908363ffffffff160217905550610140820151816008015590505060056000336001600160a01b03166001600160a01b03168152602001908152602001600020600060189054906101000a900463ffffffff1690806001815401808255809150506001900390600052602060002090600891828204019190066004029091909190916101000a81548163ffffffff021916908363ffffffff160217905550610ab887611323565b50610ac286611323565b50610acc85611323565b50610ad684611323565b50610ae083611323565b50610aea82611323565b50610af481611323565b50610aff8733611333565b50610b0a8633611333565b50610b158533611333565b50610b208433611333565b50610b2b8333611333565b50610b368233611333565b50610b418133611333565b50600080546040513392600160c01b90920463ffffffff16917f97d935e653a13740e326867a5975c743f7ad5cd5b4615bba3f7a1448fa86d93691a360008054600160c01b900463ffffffff16906018610b9a83611f76565b91906101000a81548163ffffffff021916908363ffffffff160217905550505050505050505050505050505050565b63ffffffff8116600090815260016020526040902060060154819061010090046001600160a01b03163314610c105760405162461bcd60e51b815260040161069b90611f4b565b5063ffffffff166000908152600160205260409020600601805460ff19169055565b6000610c3d876112f9565b90506000610c4a876112f9565b90506000610c57876112f9565b90506000610c64876112f9565b90506000610c7187611310565b90506000610c7e876112f9565b9050604051806101200160405280878152602001868152602001858152602001848152602001838152602001828152602001600115158152602001336001600160a01b0316815260200142815250600160008060149054906101000a900463ffffffff1663ffffffff1663ffffffff168152602001908152602001600020600082015181600001556020820151816001015560408201518160020155606082015181600301556080820151816004015560a0820151816005015560c08201518160060160006101000a81548160ff02191690831515021790555060e08201518160060160016101000a8154816001600160a01b0302191690836001600160a01b03160217905550610100820151816007015590505060046000336001600160a01b03166001600160a01b03168152602001908152602001600020600060149054906101000a900463ffffffff1690806001815401808255809150506001900390600052602060002090600891828204019190066004029091909190916101000a81548163ffffffff021916908363ffffffff160217905550610e1f86611323565b50610e2985611323565b50610e3384611323565b50610e3d83611323565b50610e4782611323565b50610e5181611323565b50610e5c8633611333565b50610e678533611333565b50610e728433611333565b50610e7d8333611333565b50610e888233611333565b50610e938133611333565b50600080546040513392600160a01b90920463ffffffff16917f2814e2d28f39239369a5811e945a1a6d7131112f09af33bb962e02260ff059e391a360008054600160a01b900463ffffffff16906014610eec83611f76565b91906101000a81548163ffffffff021916908363ffffffff16021790555050505050505050505050505050565b63ffffffff8116600090815260016020526040902060060154819061010090046001600160a01b03163314610f605760405162461bcd60e51b815260040161069b90611f4b565b5063ffffffff166000908152600160208190526040909120600601805460ff19169091179055565b63ffffffff8116600090815260016020526040902060060154819061010090046001600160a01b03163314610fcf5760405162461bcd60e51b815260040161069b90611f4b565b63ffffffff821660009081526001602052604090206006015460ff1661102a5760405162461bcd60e51b815260206004820152601060248201526f526f757465206e6f742061637469766560801b604482015260640161069b565b63ffffffff821660009081526001602052604080822081516064808252610ca082019093529092918160200160208202803683370190505090506000806110716000611310565b905060015b60005463ffffffff600160c01b9091048116908216101561112b5763ffffffff811660009081526002602052604090206007015460ff166111235760006110bd8883611346565b905081858563ffffffff16815181106110d8576110d8611fbd565b63ffffffff90921660209283029190910190910152836110f781611f76565b63ffffffff841660009081526002602052604090206004015490955061111f91508490611434565b9250505b600101611076565b50600061113987858561146d565b90506040518060c001604052808863ffffffff16815260200161115c86866115dd565b8152602080820185905260408083018590526001606084018190524260809094019390935263ffffffff8b8116600090815260038452919091208451815463ffffffff1916921691909117815583820151805191936111c19390850192910190611c77565b506040820151600282015560608201516003820155608082015160048201805460ff191691151591909117905560a09091015160059091015561120382611323565b5061120d81611323565b506112188233611333565b506112238133611333565b508663ffffffff167fe105eed333e4892652e5b53c79a4b4c10bcdb3b113b5d33a0e646aae9693f5f14260405161125c91815260200190565b60405180910390a250505050505050565b6004602052816000526040600020818154811061084b57600080fd5b6001600160a01b038116600090815260056020908152604091829020805483518184028101840190945280845260609392830182828015610648576000918252602091829020805463ffffffff16845290820283019290916004910180841161060b575094979650505050505050565b600061130a8261ffff1660036116a0565b92915050565b600061130a8263ffffffff1660046116a0565b600061132f823061173d565b5090565b600061133f838361173d565b5090919050565b63ffffffff8083166000908152600160209081526040808320938516835260029091528120825491929183906113bd906113949061138d9061138860326112f9565b6117ba565b84546117ec565b6113b884600001546113b387600201546113ae60326112f9565b61181e565b6117ec565b611841565b905060006113fd6113e36113d9866001015461138860326112f9565b85600301546117ec565b6113b885600301546113b388600301546113ae60326112f9565b9050600061141384600401548660040154611873565b90506114286114228484611841565b82611841565b98975050505050505050565b600082611448576114456000611310565b92505b8161145a576114576000611310565b91505b61146683836000611896565b9392505050565b63ffffffff831660009081526001602052604081208161148c816112f9565b9050600061149a6000611310565b905060005b8563ffffffff168163ffffffff16101561158357868163ffffffff16815181106114cb576114cb611fbd565b602002602001015163ffffffff1660001461157b5761152b83600260008a8563ffffffff168151811061150057611500611fbd565b602002602001015163ffffffff1663ffffffff1681526020019081526020016000206005015461181e565b925061157882600260008a8563ffffffff168151811061154d5761154d611fbd565b602002602001015163ffffffff1663ffffffff16815260200190815260200160002060040154611434565b91505b60010161149f565b50600061159483856005015461181e565b905060006115ab836115a66064611310565b61194a565b905060006115c2836115bd60026112f9565b61197c565b90506115cf8282856119ae565b9a9950505050505050505050565b606060008263ffffffff1667ffffffffffffffff81111561160057611600611fa7565b604051908082528060200260200182016040528015611629578160200160208202803683370190505b50905060005b8363ffffffff168163ffffffff16101561169857848163ffffffff168151811061165b5761165b611fbd565b6020026020010151828263ffffffff168151811061167b5761167b611fbd565b63ffffffff9092166020928302919091019091015260010161162f565b509392505050565b60008051602061205f83398151915254604051639cd07acb60e01b815260009160008051602061203f833981519152916001600160a01b0390911690639cd07acb906116f29087908790600401611fd3565b6020604051808303816000875af1158015611711573d6000803e3d6000fd5b505050506040513d601f19601f820116820180604052508101906117359190612005565b949350505050565b600060008051602061203f8339815191528054604051635ca4b5b160e11b8152600481018690526001600160a01b03858116602483015292935091169063b9496b6290604401600060405180830381600087803b15801561179d57600080fd5b505af11580156117b1573d6000803e3d6000fd5b50505050505050565b6000826117ce576117cb60006112f9565b92505b816117e0576117dd60006112f9565b91505b611466838360006119bb565b600082611800576117fd60006112f9565b92505b816118125761180f60006112f9565b91505b61146683836000611a22565b6000826118325761182f60006112f9565b92505b8161145a5761145760006112f9565b600082611855576118526000611a89565b92505b81611867576118646000611a89565b91505b61146683836000611aa7565b600082611887576118846000611310565b92505b816118125761180f6000611310565b60008082156118aa5750600160f81b6118ae565b5060005b60008051602061205f8339815191525460405163022f65e760e31b815260008051602061203f833981519152916001600160a01b03169063117b2f38906118fd9089908990879060040161201e565b6020604051808303816000875af115801561191c573d6000803e3d6000fd5b505050506040513d601f19601f820116820180604052508101906119409190612005565b9695505050505050565b60008261195e5761195b6000611310565b92505b816119705761196d6000611310565b91505b61146683836000611b0e565b6000826119905761198d60006112f9565b92505b816119a25761199f60006112f9565b91505b61146683836000611b75565b6000611735848484611bdc565b60008082156119cf5750600160f81b6119d3565b5060005b60008051602061205f833981519152546040516303056db360e31b815260008051602061203f833981519152916001600160a01b03169063182b6d98906118fd9089908990879060040161201e565b6000808215611a365750600160f81b611a3a565b5060005b60008051602061205f83398151915254604051631d44e90160e21b815260008051602061203f833981519152916001600160a01b031690637513a404906118fd9089908990879060040161201e565b600061130a82611a9a576000611a9d565b60015b60ff1660006116a0565b6000808215611abb5750600160f81b611abf565b5060005b60008051602061205f8339815191525460405163d99882d560e01b815260008051602061203f833981519152916001600160a01b03169063d99882d5906118fd9089908990879060040161201e565b6000808215611b225750600160f81b611b26565b5060005b60008051602061205f833981519152546040516385362ee760e01b815260008051602061203f833981519152916001600160a01b0316906385362ee7906118fd9089908990879060040161201e565b6000808215611b895750600160f81b611b8d565b5060005b60008051602061205f83398151915254604051630afe14ad60e31b815260008051602061203f833981519152916001600160a01b0316906357f0a568906118fd9089908990879060040161201e565b60008060008051602061203f8339815191526001810154604051637702dcff60e01b81526004810188905260248101879052604481018690529192506001600160a01b031690637702dcff906064016020604051808303816000875af1158015611c4a573d6000803e3d6000fd5b505050506040513d601f19601f82011682018060405250810190611c6e9190612005565b95945050505050565b82805482825590600052602060002090600701600890048101928215611d165791602002820160005b83821115611ce457835183826101000a81548163ffffffff021916908363ffffffff1602179055509260200192600401602081600301049283019260010302611ca0565b8015611d145782816101000a81549063ffffffff0219169055600401602081600301049283019260010302611ce4565b505b5061132f9291505b8082111561132f5760008155600101611d1e565b803563ffffffff81168114611d4657600080fd5b919050565b600060208284031215611d5d57600080fd5b61146682611d32565b80356001600160a01b0381168114611d4657600080fd5b600060208284031215611d8f57600080fd5b61146682611d66565b6020808252825182820181905260009190848201906040850190845b81811015611dd657835163ffffffff1683529284019291840191600101611db4565b50909695505050505050565b60008060408385031215611df557600080fd5b611dfe83611d32565b9150611e0c60208401611d32565b90509250929050565b60008060408385031215611e2857600080fd5b611e3183611d66565b946020939093013593505050565b803561ffff81168114611d4657600080fd5b600080600080600080600060e0888a031215611e6c57600080fd5b611e7588611e3f565b9650611e8360208901611e3f565b9550611e9160408901611e3f565b9450611e9f60608901611e3f565b9350611ead60808901611d32565b9250611ebb60a08901611e3f565b9150611ec960c08901611d32565b905092959891949750929550565b60008060008060008060c08789031215611ef057600080fd5b611ef987611e3f565b9550611f0760208801611e3f565b9450611f1560408801611e3f565b9350611f2360608801611e3f565b9250611f3160808801611d32565b9150611f3f60a08801611e3f565b90509295509295509295565b6020808252601190820152702737ba103937baba329031b0b93934b2b960791b604082015260600190565b600063ffffffff808316818103611f9d57634e487b7160e01b600052601160045260246000fd5b6001019392505050565b634e487b7160e01b600052604160045260246000fd5b634e487b7160e01b600052603260045260246000fd5b8281526040810160548310611ff857634e487b7160e01b600052602160045260246000fd5b8260208301529392505050565b60006020828403121561201757600080fd5b5051919050565b92835260208301919091526001600160f81b03191660408201526060019056feed8d60e34876f751cc8b014c560745351147d9de11b9347c854e881b128ea600ed8d60e34876f751cc8b014c560745351147d9de11b9347c854e881b128ea601a2646970667358221220b40d38044276eff76a82885986a7d7d32b85f416641dbe5bb6a5ab9003c8717564736f6c63430008180033",
  "linkReferences": {},
  "deployedLinkReferences": {}
}